:100000000C9469010C948A010C948A010C948A0165
:100010000C948A010C948A010C948A010C948A0134
:100020000C948A010C948A010C948A010C948A0124
:100030000C948A010C948A010C948A010C948A0114
:100040000C948A010C948A010C948A010C948A0104
:100050000C948A010C948A010C948A010C948A01F4
:100060000C948A010C948A010C948A010C948A01E4
:100070000C948A010C948A010C948A010C948A01D4
:100080000C948A010C948A010C948A010C948A01C4
:100090000C948A010C948A010C948A010C948A01B4
:1000A0000C948A010C948A010C948A010C948A01A4
:1000B0000C948A010C948A010C948A010C948A0194
:1000C0000C948A010C948A010C948A010C948A0184
:1000D0000C948A010C948A010C948A010C948A0174
:1000E0000C948A010C948A010C948A010C948A0164
:1000F0000C948A010C948A010C948A010C948A0154
:100100000C948A010C948A010C948A010C948A0143
:100110000C948A010C948A010C948A010C948A0133
:100120000C948A010C948A010C948A010C948A0123
:100130000C948A010C948A010C948A010C948A0113
:100140000C948A010C948A010C948A010C948A0103
:100150000C948A010C948A010C948A010C948A01F3
:100160000C948A010C948A010C948A010C948A01E3
:100170000C948A010C948A010C948A010C948A01D3
:100180000C948A010C948A010C948A010C948A01C3
:100190000C948A010C948A010C948A010C948A01B3
:1001A0000C948A010C948A010C948A010C948A01A3
:1001B0000C948A010C948A010C948A010C948A0193
:1001C0000C948A010C948A010102040810204080DA
:1001D0001B36637C777BF26B6FC53001672BFED7D4
:1001E000AB76CA82C97DFA5947F0ADD4A2AF9CA4C0
:1001F00072C0B7FD9326363FF7CC34A5E5F171D830
:10020000311504C723C31896059A071280E2EB271D
:10021000B27509832C1A1B6E5AA0523BD6B329E340
:100220002F8453D100ED20FCB15B6ACBBE394A4C20
:1002300058CFD0EFAAFB434D338545F9027F503CA0
:100240009FA851A3408F929D38F5BCB6DA2110FFCC
:10025000F3D2CD0C13EC5F974417C4A77E3D645DC9
:10026000197360814FDC222A908846EEB814DE5E56
:100270000BDBE0323A0A4906245CC2D3AC629195AA
:10028000E479E7C8376D8DD54EA96C56F4EA657AE6
:10029000AE08BA78252E1CA6B4C6E8DD741F4BBD87
:1002A0008B8A703EB5664803F60E613557B986C134
:1002B0001D9EE1F8981169D98E949B1E87E9CE5551
:1002C00028DF8CA1890DBFE6426841992D0FB054FB
:1002D000BB1611241FBECFEFDFE3DEBFCDBF00E0B2
:1002E0000CBF11E2A0E0B0E2EAE0FDE000E00BBFED
:1002F00002C007900D92A032B107D9F712E2A0E236
:10030000B1E201C01D92A136B107E1F70E94EE01F2
:100310000C9483060C9400000F931F93CF93DF93EC
:100320008B01BA01EC0140E050E024C088818A339F
:1003300030F08062A82FB0E0A755B04003C0A82FCE
:10034000B0E0D09799819A3330F09062292F30E055
:100350002755304004C0292F30E020533040FB01A6
:10036000E40FF51F8A2F8295807F822B80834F5F59
:100370005F4F2296CA01880F991F80179107B0F22C
:10038000CB01DF91CF911F910F910895CF93DF9310
:10039000EC01DA0120E030E015C0E881E295EF7071
:1003A000F0E0E050F04E80818C93E991F0E0EF7046
:1003B000F070E050F04E808111968C9311972F5F72
:1003C0003F4F1296FB012617370738F3EE0FFF1F3A
:1003D000E40FF51F1082DF91CF910895AF92BF9285
:1003E000DF92EF92FF920F931F93DF93CF930F92C1
:1003F000CDB7DEB70E9410040E942003E12C66E016
:10040000F62E11E0F701118380E50E945D0381E67D
:100410000E945D0383E70E945D0383E70E945D0302
:1004200087E70E945D038FE60E945D0382E70E94DA
:100430005D0384E60E945D038AE30E945D0380E21F
:100440000E945D03F70114830E94ED02882321F4CA
:100450000E94E5028823A9F080E197E228EB30E0D2
:10046000F9013197F1F70197D9F7E0E0F6E014824E
:1004700093E088ED08B684BF90938000A89508BEED
:10048000FFCFF70114828AE00E945D0387E50E9496
:100490005D0385E60E945D038CE60E945D0383E6B2
:1004A0000E945D038FE60E945D038DE60E945D035E
:1004B00085E60E945D0381E20E945D038AE00E945E
:1004C0005D030E94DA0280E190E20E94E00290E087
:1004D00000E010E0E12C56E0F52EDD24D39403C0BB
:1004E00091E000E010E099830E94560399818837DB
:1004F00011F490E0F6CF8B3699F3803711F492E047
:10050000F0CF9130A9F48A3019F08D3009F04BC04A
:10051000F801EF5DFE4D108281E291E2B80140E109
:1005200050E20E948C0180E190E20E94E00239C01A
:100530009230C9F68A3011F08D3081F5F801EF5D07
:10054000FE4D108281E291E2B80141E651E20E9443
:100550008C01F701D48281E691E20E94DB02F7016F
:10056000148281E691E260E170E041E251E20E9492
:10057000C60182E70E945D0341E2A42E41E2B42E4F
:10058000F50181915F010E945D03F1E4AF16F1E294
:10059000BF06B1F78AE00E945D0303C00034110575
:1005A00014F090E0A0CFF801EF5DFE4D80830F5F67
:1005B0001F4F99CF089561EB71E20E94690608957B
:1005C00061EB71E20E946306089590E08091202122
:1005D000883009F091E0892F08951F931EC09091F3
:1005E0002021983038F4E92FF0E0E05EFF4D808163
:1005F000181781F0892F0E945D03812F0E945D03EF
:10060000E0912021F0E0E05EFF4D80810E945D03DB
:1006100081E00DC09F5F909320210E945603182F08
:10062000882321F08A3011F08D30C9F680E01F91C7
:10063000089588ED84BF81E0E8E7F0E081830895C4
:10064000E0E4F6E088E0818384E08283E0EAF8E099
:1006500083E085838BE08683178284818061848335
:100660008481886084830895DF93CF930F920F92E3
:10067000CDB7DEB7FC0169837A8320E030E00BC0A0
:100680008091A10887FF05C08091A008808381E048
:1006900008C02F5F3F4F89819A812817390781F75A
:1006A00080E00F900F90CF91DF9108958091A10885
:1006B00087FFFCCF8091A0080895982F8091A10812
:1006C00085FFFCCF9093A0080895FC01608371839F
:1006D000428314861386168615860895FC0162836C
:1006E0000895FC018585968520E08F5F83708913CE
:1006F00021E0822F0895DC011D968C911D971E9696
:100700009C911E9720E08F5F83708917B1F021E0E4
:100710001D968C911D97FD01E80FF11D67838F5F7A
:1007200083701D968C931D97ED91FC911197838199
:100730008C7F12969C91892B8383822F0895FC01D4
:100740009385848520E0981321E0822F0895DC01B1
:100750001C968C911C97FD01E80FF11D83811C965E
:100760009C911C979F5F93701C969C930895DC014D
:100770001B969C911B979F5F93701C968C911C9766
:10078000ED91FC9111972081981711F480E0089564
:100790001B968C911B97FD01E80FF11D23831B967F
:1007A0009C9381E00895CF93DF93DC011E969C918A
:1007B0001E971D968C911D97CD91DC9111978917ED
:1007C00021F48B818C7F8B830FC01E968C911E979A
:1007D000FD01E80FF11D878188831E968C911E977D
:1007E0008F5F83701E968C93DF91CF910895FC01EB
:1007F00070FF03C08481816002C084818E7F848306
:1008000060830895FC01848180FF05C08081282FCA
:1008100030E0316003C08081282F30E0C9010895A5
:10082000E0E5F0E0128215828091500088608093AC
:1008300050008091510083FFFCCF88ED84BF83E09E
:100840008093400088E0809350000895DF93CF9319
:1008500000D00F92CDB7DEB7DC018C91898314965E
:100860008C9114978A8318968C9118978B831C9679
:100870008C911C978C8370E0FB01E370F0709E01FB
:100880002F5F3F4FE20FF31F80818C93FB01319666
:10089000E370F070E20FF31F808114968C9314972D
:1008A0006E5F7F4FFB01E370F070E20FF31F8081FA
:1008B00018968C9318976F5F7F4F63707070260F38
:1008C000371FF90180811C968C932496CDBFDEBF23
:1008D000CF91DF9108953F924F925F926F927F92F6
:1008E0008F929F92AF92BF92CF92DF92EF92FF9240
:1008F0000F931F93DF93CF93CDB7DEB76297CDBF32
:10090000DEBF5C013B01342E2C01DC0120E030E035
:10091000F301E20FF31F8C91908189278D932F5F54
:100920003F4F20313105A1F701E0CE014196898B7F
:100930009A8B8FC0470194E0880C991C9A95E1F737
:10094000860C971C80E090E0F501E80FF91FE0812C
:10095000F0E0EE52FE4FE491A1E0B0E0AC0FBD1F1D
:10096000A80FB91FEC9301968031910569F7CE016C
:10097000029661E00E942604CE01039662E00E9486
:100980002604CE01049663E00E9426047E010894AA
:10099000E11CF11C6501D70111966C9111978C91A6
:1009A000682713961C91139712968C911827162777
:1009B00082E04BE10E946D06F70190819127982714
:1009C000D6019C9362818181682782E04BE10E947D
:1009D0006D06F701918191279827D60111969C9376
:1009E00063818281682782E04BE10E946D06F701F6
:1009F000928191279827D60112969C9360818381DA
:100A0000682782E04BE10E946D06F7019381192768
:100A10001827D60113961C93E4E0F0E0EE0EFF1EBB
:100A2000CE0EDF1E89899A89E816F90609F0B3CF40
:100A3000D50120E030E0F401E20FF31F8C919081AA
:100A400089278D932F5F3F4F20313105A1F70F5F2D
:100A50003A94E02EFF2491E0931508F46BCFD50172
:100A600080E0EC91F0E0EE52FE4FE491ED938F5F69
:100A70008031B9F7C501019661E00E942604C501E5
:100A8000029662E00E942604C501039663E00E947C
:100A90002604F70184E0EE0FFF1F8A95E1F7E60DCB
:100AA000F71D20E0D2018C91919189278D932D0122
:100AB0002F5F2031B9F76296CDBFDEBFCF91DF91B6
:100AC0001F910F91FF90EF90DF90CF90BF90AF906C
:100AD0009F908F907F906F905F904F903F90089580
:100AE0002F923F924F925F926F927F928F929F923E
:100AF000AF92BF92CF92DF92EF92FF920F931F932C
:100B0000DF93CF9300D00F92CDB7DEB7FC019B01EE
:100B1000F42EE52E8B0155E0169507955A95E1F7D1
:100B2000902EA02EBB2487E090E0A80EB91E8A2C40
:100B3000880C880C89EF9FEFA80EB91E43E036950C
:100B400027954A95E1F78F2D9E2DBF01A9010E949F
:100B50007A06CF2CDE2CE02EEE0CF02E10E02E01CB
:100B60000894411C511C32010894611C711C34E032
:100B7000232E312C2C0E3D1E81C06F2D70E0FB0109
:100B8000E150F040EE0FFF1FEE0FFF1FEC0DFD1DBB
:100B900080819181A281B38189839A83AB83BC8355
:100BA000F01619F198E0991609F045C0CB0187704D
:100BB0009070049709F03FC0E981F0E0EE52FE4FDB
:100BC000E491E983EA81F0E0EE52FE4FE491EA839A
:100BD000EB81F0E0EE52FE4FE491EB83EC81F0E02C
:100BE000EE52FE4FE491EC8326C0F1012081F20128
:100BF0003081F3018081E82FF0E0EE52FE4F9491B6
:100C0000EB81F0E0EE52FE4FE491EA83E22FF0E058
:100C1000EE52FE4F84918B83E32FF0E0EE52FE4FB5
:100C200084918C83E12FF0E0E853FE4FE4919E27FE
:100C300099831F5F0E2D660F771F660F771F6C0D50
:100C40007D1DEF2DF0E0EA19FB09EE0FFF1FEE0FFF
:100C5000FF1FEC0DFD1D80819181A281B38129814F
:100C60003A814B815C8182279327A427B527FB011A
:100C700080839183A283B383F394E394F81408F4FC
:100C80007CCF2496CDBFDEBFCF91DF911F910F9116
:100C9000FF90EF90DF90CF90BF90AF909F908F909C
:100CA0007F906F905F904F903F902F900895AB0191
:100CB00060E071E00E9470050895AB0160EC70E0A7
:100CC0000E9470050895AB0160E870E00E94700515
:100CD00008954AE00E946B040895782F882776953E
:100CE00031F008F48627660F08F46427F8CF08F47B
:100CF00086270895FB01DC0102C001900D9241504E
:0A0D00005040D8F70895F894FFCF93
:100D0A003031323334353637383941424344454637
:100D1A002B7E151628AED2A6ABF7158809CF4F3C05
:100D2A0070617373776F7264000000000000000046
:100D3A0000000000000000000000000000000000A9
:100D4A000000000000000000000000000000000099
:100D5A000000000000000000000000000000000089
:100D6A000000000000000000000000000000000079
:100D7A000000000000000000000000000000000069
:100D8A000000000000000000000000000000000059
:100D9A000000000000000000000000000000000049
:100DAA000000000000000000000000000000000039
:100DBA000000000000000000000000000000000029
:100DCA000000000000000000000000000000000019
:100DDA000000000000000000000000000000000009
:100DEA0000000000000000000000000000000000F9
:100DFA0000000000000000000000000000000000E9
:100E0A0000000000000000000000000000000000D8
:100E1A0000000000000000000000000000000000C8
:00000001FF
