:100000000C9469010C948A010C948A010C948A0165
:100010000C948A010C948A010C948A010C948A0134
:100020000C948A010C948A010C948A010C948A0124
:100030000C948A010C948A010C948A010C948A0114
:100040000C948A010C948A010C948A010C948A0104
:100050000C948A010C948A010C948A010C948A01F4
:100060000C948A010C948A010C948A010C948A01E4
:100070000C948A010C948A010C948A010C948A01D4
:100080000C948A010C948A010C948A010C948A01C4
:100090000C948A010C948A010C948A010C948A01B4
:1000A0000C948A010C948A010C948A010C948A01A4
:1000B0000C948A010C948A010C948A010C948A0194
:1000C0000C948A010C948A010C948A010C948A0184
:1000D0000C948A010C948A010C948A010C948A0174
:1000E0000C948A010C948A010C948A010C948A0164
:1000F0000C948A010C948A010C948A010C948A0154
:100100000C948A010C948A010C948A010C948A0143
:100110000C948A010C948A010C948A010C948A0133
:100120000C948A010C948A010C948A010C948A0123
:100130000C948A010C948A010C948A010C948A0113
:100140000C948A010C948A010C948A010C948A0103
:100150000C948A010C948A010C948A010C948A01F3
:100160000C948A010C948A010C948A010C948A01E3
:100170000C948A010C948A010C948A010C948A01D3
:100180000C948A010C948A010C948A010C948A01C3
:100190000C948A010C948A010C948A010C948A01B3
:1001A0000C948A010C948A010C948A010C948A01A3
:1001B0000C948A010C948A010C948A010C948A0193
:1001C0000C948A010C948A010102040810204080DA
:1001D0001B36637C777BF26B6FC53001672BFED7D4
:1001E000AB76CA82C97DFA5947F0ADD4A2AF9CA4C0
:1001F00072C0B7FD9326363FF7CC34A5E5F171D830
:10020000311504C723C31896059A071280E2EB271D
:10021000B27509832C1A1B6E5AA0523BD6B329E340
:100220002F8453D100ED20FCB15B6ACBBE394A4C20
:1002300058CFD0EFAAFB434D338545F9027F503CA0
:100240009FA851A3408F929D38F5BCB6DA2110FFCC
:10025000F3D2CD0C13EC5F974417C4A77E3D645DC9
:10026000197360814FDC222A908846EEB814DE5E56
:100270000BDBE0323A0A4906245CC2D3AC629195AA
:10028000E479E7C8376D8DD54EA96C56F4EA657AE6
:10029000AE08BA78252E1CA6B4C6E8DD741F4BBD87
:1002A0008B8A703EB5664803F60E613557B986C134
:1002B0001D9EE1F8981169D98E949B1E87E9CE5551
:1002C00028DF8CA1890DBFE6426841992D0FB054FB
:1002D000BB1611241FBECFEFDFE3DEBFCDBF00E0B2
:1002E0000CBF11E2A0E0B0E2E4E0FDE000E00BBFF3
:1002F00002C007900D92A032B107D9F713E2A0E235
:10030000B1E201C01D92A136B107E1F70E94EE01F2
:100310000C9480060C9400000F931F93CF93DF93EF
:100320008B01BA01EC0140E050E024C088818A339F
:1003300030F08062A82FB0E0A755B04003C0A82FCE
:10034000B0E0D09799819A3330F09062292F30E055
:100350002755304004C0292F30E020533040FB01A6
:10036000E40FF51F8A2F8295807F822B80834F5F59
:100370005F4F2296CA01880F991F80179107B0F22C
:10038000CB01DF91CF911F910F910895CF93DF9310
:10039000EC01DA0120E030E015C0E881E295EF7071
:1003A000F0E0E050F04E80818C93E991F0E0EF7046
:1003B000F070E050F04E808111968C9311972F5F72
:1003C0003F4F1296FB012617370738F3EE0FFF1F3A
:1003D000E40FF51F1082DF91CF910895AF92BF9285
:1003E000DF92EF92FF920F931F93DF93CF930F92C1
:1003F000CDB7DEB70E940D040E941D03E12C66E01C
:10040000F62E11E0F701118380E50E945A0381E680
:100410000E945A0383E70E945A0383E70E945A030B
:1004200087E70E945A038FE60E945A0382E70E94E0
:100430005A0384E60E945A038AE30E945A0380E228
:100440000E945A03F70114830E940003882321F4B9
:100450000E94E5028823A9F080E197E228EB30E0D2
:10046000F9013197F1F70197D9F7E0E0F6E014824E
:1004700093E088ED08B684BF90938000A89508BEED
:10048000FFCFF70114828AE00E945A0387E50E9499
:100490005A0385E60E945A038CE60E945A0383E6BB
:1004A0000E945A038FE60E945A038DE60E945A0367
:1004B00085E60E945A0381E20E945A038AE00E9464
:1004C0005A030E94DA0280E190E20E94E00290E08A
:1004D00000E010E0E12C56E0F52EDD24D39403C0BB
:1004E00091E000E010E099830E94530399818837DE
:1004F00011F490E0F6CF8B3699F3803711F492E047
:10050000F0CF9130A9F48A3019F08D3009F04BC04A
:10051000F801EF5DFD4D108281E292E2B80140E109
:1005200050E20E948C0180E190E20E94E00239C01A
:100530009230C9F68A3011F08D3081F5F801EF5D07
:10054000FD4D108281E292E2B80141E652E20E9442
:100550008C01F701D48281E692E20E94DB02F7016E
:10056000148281E692E260E170E041E252E20E9490
:10057000C60182E70E945A0341E2A42E42E2B42E51
:10058000F50181915F010E945A03F1E4AF16F2E296
:10059000BF06B1F78AE00E945A0303C00034110578
:1005A00014F090E0A0CFF801EF5DFD4D80830F5F68
:1005B0001F4F99CF089561EB72E20E94660608957D
:1005C00061EB72E20E9460060895809120218830DC
:1005D00011F081E0089520E030E0F901EF5DFE4D7B
:1005E000D901A05EBF4D90818C91981711F082E0E7
:1005F00008952F5F3F4F2830310579F780E0089547
:100600000AC080912021E82FF0E0EF5DFE4D90833D
:100610008F5F809320210E945303982F882321F01D
:100620008A3011F08D3069F780E0089588ED84BF3D
:1006300081E0E8E7F0E081830895E0E4F6E088E017
:10064000818384E08283E0EAF8E083E085838BE0C5
:100650008683178284818061848384818860848317
:100660000895DF93CF930F920F92CDB7DEB7FC01C1
:1006700069837A8320E030E00BC08091A10887FF76
:1006800005C08091A008808381E008C02F5F3F4FA4
:1006900089819A812817390781F780E00F900F90A0
:1006A000CF91DF9108958091A10887FFFCCF8091C1
:1006B000A0080895982F8091A10885FFFCCF909302
:1006C000A0080895FC016083718342831486138619
:1006D000168615860895FC0162830895FC018585C0
:1006E000968520E08F5F8370891321E0822F089523
:1006F000DC011D968C911D971E969C911E9720E003
:100700008F5F83708917B1F021E01D968C911D9742
:10071000FD01E80FF11D67838F5F83701D968C9339
:100720001D97ED91FC91119783818C7F12969C917E
:10073000892B8383822F0895FC019385848520E093
:10074000981321E0822F0895DC011C968C911C9750
:10075000FD01E80FF11D83811C969C911C979F5F02
:1007600093701C969C930895DC011B969C911B979B
:100770009F5F93701C968C911C97ED91FC91119743
:100780002081981711F480E008951B968C911B9797
:10079000FD01E80FF11D23831B969C9381E00895D2
:1007A000CF93DF93DC011E969C911E971D968C9132
:1007B0001D97CD91DC911197891721F48B818C7F46
:1007C0008B830FC01E968C911E97FD01E80FF11DC3
:1007D000878188831E968C911E978F5F83701E96EB
:1007E0008C93DF91CF910895FC0170FF03C0848149
:1007F000816002C084818E7F848360830895FC01C0
:10080000848180FF05C08081282F30E0316003C0E3
:100810008081282F30E0C9010895E0E5F0E01282E0
:100820001582809150008860809350008091510023
:1008300083FFFCCF88ED84BF83E08093400088E095
:10084000809350000895DF93CF9300D00F92CDB7DF
:10085000DEB7DC018C91898314968C9114978A837E
:1008600018968C9118978B831C968C911C978C836F
:1008700070E0FB01E370F0709E012F5F3F4FE20FCD
:10088000F31F80818C93FB013196E370F070E20FCF
:10089000F31F808114968C9314976E5F7F4FFB013A
:1008A000E370F070E20FF31F808118968C93189715
:1008B0006F5F7F4F63707070260F371FF901808163
:1008C0001C968C932496CDBFDEBFCF91DF91089507
:1008D0003F924F925F926F927F928F929F92AF92D0
:1008E000BF92CF92DF92EF92FF920F931F93DF930D
:1008F000CF93CDB7DEB76297CDBFDEBF5C013B01C2
:10090000342E2C01DC0120E030E0F301E20FF31F74
:100910008C91908189278D932F5F3F4F2031310536
:10092000A1F701E0CE014196898B9A8B8FC04701D8
:1009300094E0880C991C9A95E1F7860C971C80E04E
:1009400090E0F501E80FF91FE081F0E0EE52FE4F74
:10095000E491A1E0B0E0AC0FBD1FA80FB91FEC936C
:1009600001968031910569F7CE01029661E00E94FF
:100970002304CE01039662E00E942304CE01049674
:1009800063E00E9423047E010894E11CF11C6501D0
:10099000D70111966C9111978C91682713961C9131
:1009A000139712968C911827162782E04BE10E942C
:1009B0006A06F701908191279827D6019C9362815E
:1009C0008181682782E04BE10E946A06F7019181EC
:1009D00091279827D60111969C936381828168277D
:1009E00082E04BE10E946A06F701928191279827E5
:1009F000D60112969C9360818381682782E04BE147
:100A00000E946A06F701938119271827D6011396C9
:100A10001C93E4E0F0E0EE0EFF1ECE0EDF1E89898F
:100A20009A89E816F90609F0B3CFD50120E030E045
:100A3000F401E20FF31F8C91908189278D932F5F32
:100A40003F4F20313105A1F70F5F3A94E02EFF248C
:100A500091E0931508F46BCFD50180E0EC91F0E0C4
:100A6000EE52FE4FE491ED938F5F8031B9F7C501EF
:100A7000019661E00E942304C501029662E00E9493
:100A80002304C501039663E00E942304F70184E078
:100A9000EE0FFF1F8A95E1F7E60DF71D20E0D2016A
:100AA0008C91919189278D932D012F5F2031B9F77A
:100AB0006296CDBFDEBFCF91DF911F910F91FF9066
:100AC000EF90DF90CF90BF90AF909F908F907F90EE
:100AD0006F905F904F903F9008952F923F924F926A
:100AE0005F926F927F928F929F92AF92BF92CF92BE
:100AF000DF92EF92FF920F931F93DF93CF9300D07B
:100B00000F92CDB7DEB7FC019B01F42EE52E8B01D1
:100B100055E0169507955A95E1F7902EA02EBB2427
:100B200087E090E0A80EB91E8A2C880C880C89EF0B
:100B30009FEFA80EB91E43E0369527954A95E1F739
:100B40008F2D9E2DBF01A9010E947706CF2CDE2C90
:100B5000E02EEE0CF02E10E02E010894411C511CEA
:100B600032010894611C711C34E0232E312C2C0EB0
:100B70003D1E81C06F2D70E0FB01E150F040EE0F93
:100B8000FF1FEE0FFF1FEC0DFD1D80819181A281E3
:100B9000B38189839A83AB83BC83F01619F198E003
:100BA000991609F045C0CB0187709070049709F041
:100BB0003FC0E981F0E0EE52FE4FE491E983EA8123
:100BC000F0E0EE52FE4FE491EA83EB81F0E0EE526A
:100BD000FE4FE491EB83EC81F0E0EE52FE4FE491A6
:100BE000EC8326C0F1012081F2013081F301808184
:100BF000E82FF0E0EE52FE4F9491EB81F0E0EE52E0
:100C0000FE4FE491EA83E22FF0E0EE52FE4F849132
:100C10008B83E32FF0E0EE52FE4F84918C83E12F23
:100C2000F0E0E853FE4FE4919E2799831F5F0E2D5D
:100C3000660F771F660F771F6C0D7D1DEF2DF0E09F
:100C4000EA19FB09EE0FFF1FEE0FFF1FEC0DFD1D54
:100C500080819181A281B38129813A814B815C811C
:100C600082279327A427B527FB0180839183A28342
:100C7000B383F394E394F81408F47CCF2496CDBFA7
:100C8000DEBFCF91DF911F910F91FF90EF90DF902A
:100C9000CF90BF90AF909F908F907F906F905F901C
:100CA0004F903F902F900895AB0160E071E00E945B
:100CB0006D050895AB0160EC70E00E946D0508952C
:100CC000AB0160E870E00E946D0508954AE00E9463
:100CD00068040895782F8827769531F008F48627E0
:100CE000660F08F46427F8CF08F486270895FB01FF
:100CF000DC0102C001900D9241505040D8F7089598
:040D0000F894FFCF95
:100D0400303132333435363738394142434445463D
:100D14002B7E151628AED2A6ABF7158809CF4F3C0B
:100D240070617373776F726400000000000000004C
:100D340000000000000000000000000000000000AF
:100D4400000000000000000000000000000000009F
:100D5400000000000000000000000000000000008F
:100D6400000000000000000000000000000000007F
:100D7400000000000000000000000000000000006F
:100D8400000000000000000000000000000000005F
:100D9400000000000000000000000000000000004F
:100DA400000000000000000000000000000000003F
:100DB400000000000000000000000000000000002F
:100DC400000000000000000000000000000000001F
:100DD400000000000000000000000000000000000F
:100DE40000000000000000000000000000000000FF
:100DF40000000000000000000000000000000000EF
:100E040000000000000000000000000000000000DE
:100E140000000000000000000000000000000000CE
:00000001FF
